:020000040800F2
:1000000060060020A1010008A9010008AB0100085A
:10001000AD010008AF010008B101000800000000B8
:10002000000000000000000000000000B301000814
:10003000B501000800000000B7010008B901000880
:10004000BB010008BB010008BB010008BB010008A0
:10005000BB010008BB010008BB010008BB01000890
:10006000BB0100085D020008AD020008BB010008EA
:10007000BB010008BB010008BB010008BB01000870
:10008000BB010008BB010008BB0100080000000024
:10009000000000000000000000000000FD02000859
:1000A000BB010008BB010008BB010008BB01000840
:1000B000BB010008BB010008BB010008BB01000830
:1000C000BB010008BB010008BB010008BB01000820
:1000D000BB010008BB010008BB010008BB01000810
:1000E000BB010008BB010008BB01000800000000C4
:1000F0000000000000000000000000000000000000
:1001000000000000000000000000000000000000EF
:100110000000000000000000BB010008BB01000857
:1001200000F002F800F02CF80AA090E8000C8244DD
:100130008344AAF10107DA4501D100F021F8AFF2BA
:10014000090EBAE80F0013F0010F18BFFB1A43F0B5
:1001500001031847140700002407000000230024AF
:1001600000250026103A28BF78C1FBD8520728BFC7
:1001700030C148BF0B6070471FB51FBD10B510BD23
:1001800000F031F81146FFF7F7FF00F0F9FA00F040
:100190004FF803B4FFF7F2FF03BC00F057F800007C
:1001A0000948804709480047FEE7FEE7FEE7FEE70B
:1001B000FEE7FEE7FEE7FEE7FEE7FEE70448054947
:1001C000054A064B704700004D0500082101000854
:1001D0006000002060060020600200206002002015
:1001E000704770477047754600F02CF8AE46050022
:1001F0006946534620F00700854618B020B5FFF742
:10020000DDFFBDE820404FF000064FF000074FF043
:1002100000084FF0000BAC46ACE8C009ACE8C009E0
:10022000ACE8C009ACE8C00921F007018D46704771
:1002300010B50446AFF300802046BDE81040FFF73C
:10024000A8BF0000004870470000002001491820A6
:10025000ABBEFEE7260002007047000010B584B078
:10026000082000F061F8E0B140F60004C4F2010497
:100270002046012100F016F92046022100F010F975
:100280006020C0F2010000900020ADF8080069462F
:100290004FF0804000F0DCF94FF08040002100F08A
:1002A00013FA082000F03AF804B010BD10B584B07D
:1002B000102000F039F8E0B140F60004C4F2010467
:1002C0002046012100F0ECF82046022100F0EAF877
:1002D0006020C0F2010000900020ADF808006946DF
:1002E0004FF0804000F0B4F94FF08040002100F062
:1002F000EBF9102000F012F804B010BD80B52020FA
:1003000000F012F830B140F60000C4F20100032101
:1003100000F0C6F8202000F001F880BD40F2144142
:10032000C4F201010860704740F20041C4F20101CB
:100330000A6849690240084018BF0120002A18BF16
:1003400001221040704700008179002940F20041ED
:10035000C4F201011FD002680B6893430B604B6825
:1003600093434B60037943EA010CDCF800301A43F5
:10037000CCF8002002688B6893438B60CB68934372
:10038000CB60407910280ED1886810438860C86817
:100390001043C86070470279006811430A6822EA76
:1003A000000008607047084301681143016070470E
:1003B00010B50C22082402EA810201F0FC01C4F20B
:1003C00001044FF00F0C51F804E00CFA02F32EEA8E
:1003D00003030B510B5990401843085110BD000006
:1003E0002DE9F047CA7802F00F0CD30644BF8B7892
:1003F0004CEA030C09880B0625D082465AF8144BA8
:1004000000F1100E00254FF001094FF00F080027F2
:1004100006E000BF1E600137082F05F1040511D06A
:1004200009FA07F60E42F6D008FA05F324EA0303A8
:100430000CFA05F41C43282A5346EBD0482AEAD18B
:100440007346E7E70460B1F5807F38BFBDE8F08709
:10045000436800F1100E00F1140900254FF4807A72
:100460004FF00F08002705E034600137082F05F131
:10047000040512D00AFA07F404EA0106A642F4D1F0
:1004800008FA05F6B3430CFA05F63343282A4E461C
:10049000EAD0482AE9D17646E6E74360BDE8F0872E
:1004A000416170470161704710B5C17800294EF273
:1004B0000011CEF200011AD04EF60C52CEF200021C
:1004C0001268072323EA12220F23C2F1040C23FA35
:1004D00002F24378847890F800E003FA0CF32240AB
:1004E0001A43120101EB0E0383F8002300E0803170
:1004F0000078012300F01F0203FA02F2C0F3421059
:1005000041F8202010BD000040F080604EF60C51F4
:1005100040F0FD70CEF2000108607047002941F202
:100520001C01C4F202010A680CBF22EA0000104359
:1005300008607047002941F21801C4F202010A68FC
:100540000CBF22EA000010430860704782B041F2FD
:100550000400C4F2020050F8041C002241F0010122
:1005600040F8041C0168CFF6FF021140016050F80A
:10057000041C4FF6FF72CFF6F662114040F8041CDF
:1005800050F8041C21F4802140F8041C016821F477
:10059000FE0101604FF41F01416000218162019161
:1005A000009150F8041C41F4803140F8041C00BF55
:1005B00050F8041C01F400310091019901310191BE
:1005C000009919B90199B1F5A06FF1D150F8041C47
:1005D000890354BF0021012100910099012924D1F0
:1005E000016801600168016001680160016821F42F
:1005F0007C110160016841F49811016050F8041CFD
:1006000041F0807140F8041C50F8041C8901FBD5AE
:10061000016821F003010160016841F002010160FD
:10062000016801F00C010829FAD14EF60850CEF20B
:1006300000004FF00061016002B07047028800299D
:1006400018BF012122F0010211440180704700000F
:10065000B0B5028C43F2004422F480720284028C12
:100660008588B0F81CC00B8922F4007242EA03228C
:100670004B88C4F20104B1F800E0A04242EA032230
:1006800005D042F60043C4F20103984212D14B89CF
:1006900040F2FF441B0222F44062A3438C881A43B9
:1006A00042EA04228C8925F44053CD8943EA04139D
:1006B00043EA05152CF0730343EA0E038580838318
:1006C000C98881870284B0BD828B22F00802114361
:1006D0008183704740F6FF33B0F800C0C4F20003D6
:1006E00098420FDCB0F1804F1ED040F20043C4F2BC
:1006F0000003984218D040F60003C4F20003984269
:1007000012D016E040F60043C4F2000398420BD02A
:1007100043F20043C4F20103984205D042F600437D
:10072000C4F20103984204D14B882CF0700243EAD2
:10073000020C41F2004240F48063C4F20002934292
:1007400004D0CA882CF4407342EA030CA0F800C01D
:100750008A888285A0F18042A2F596320B884FEA02
:10076000B222072A038507D8012303FA02F212F006
:10077000E50F1CBF097A01860121818270470000C4
:1007800084B0042001210125FFF7D4FE10200121AF
:10079000FFF7D0FE04200121FFF7CCFE032040F636
:1007A0000004C1F20300C4F20104019001A9204633
:1007B000FFF716FE04200121FFF7BCFE3C20C1F626
:1007C0000300019001A92046FFF70AFE0120012144
:1007D000FFF7A4FE40F65F10C0F2010002900A206D
:1007E000019000208DF80C0001A94FF08040FFF728
:1007F00071FF4FF080400121FFF720FF002003210F
:10080000FFF7D6FD00200421FFF7D2FD00200521CF
:10081000FFF7CEFD382001904FF40060ADF80800DE
:1008200001A88DF80A50FFF78FFD4FF4A060FFF785
:100830006BFE40F20910C0F2001001AC019020469E
:10084000FFF732FE40F20A20C0F20010019020466D
:10085000FFF72AFE1720C0F2001001902046FFF794
:1008600023FE00BFFEE7000078080008000000201B
:08087000600600005C010008B5
:04000005080001A14D
:00000001FF
