:020000040800F2
:1000000088060020C5010008CD010008CF010008C6
:10001000D1010008D3010008D5010008000000004C
:10002000000000000000000000000000D7010008F0
:10003000D901000800000000DB010008B507000836
:10004000DF010008DF010008DF010008DF01000810
:10005000DF010008DF010008DF010008DF01000800
:10006000DF010008DF010008DF010008DF010008F0
:10007000DF010008DF010008DF010008DF010008E0
:10008000DF010008DF010008DF01000800000000B8
:10009000000000000000000000000000DF01000878
:1000A000DF010008DF010008DF010008DF010008B0
:1000B000DF010008DF010008DF010008DF010008A0
:1000C000DF010008DF010008DF010008DF01000890
:1000D000DF010008DF010008DF010008DF01000880
:1000E000DF010008DF010008DF0100080000000058
:1000F0000000000000000000000000000000000000
:1001000000000000000000000000000000000000EF
:100110000000000000000000DF010008DF0100080F
:1001200000F002F800F03FF80AA090E8000C8244CA
:100130008344AAF10107DA4501D100F034F8AFF2A7
:10014000090EBAE80F0013F0010F18BFFB1A43F0B5
:1001500001031847D8090000F8090000103A24BF2D
:1001600078C878C1FAD8520724BF30C830C144BF1C
:1001700004680C607047000000230024002500265E
:10018000103A28BF78C1FBD8520728BF30C148BFFA
:100190000B607047642900F07D80002070471FB518
:1001A0001FBD10B510BD00F02AF91146FFF7F7FF8B
:1001B00000F036FC00F048F903B4FFF7F2FF03BC8F
:1001C00000F050F90948804709480047FEE7FEE77C
:1001D000FEE7FEE7FEE7FEE7FEE7FEE7FEE7FEE7F7
:1001E00004480549054A064B7047000035080008D9
:1001F00021010008880000208806002088020020D5
:10020000880200200FB41CB5074B06AA7B44694640
:100210000090059800F0DBF80020694600F0EAF84D
:100220001CBC5DF814FB0000E50100002DE9F04165
:100230000E460446002020622046E168884730B31D
:10024000252805D0D4E901219047206A401CF2E717
:10025000E168204600278847050018D0A5F1410035
:10026000192802D820354FF4006732462946204627
:100270002760FFF78FFF40B1012804D0F61D26F05C
:1002800007060836D8E7361DD6E72846DAE7206A9B
:10029000BDE8F0812DE9F04106460024106875297B
:1002A000314616A510D0AFF30080002802DA404294
:1002B00013A507E031688A0701D512A502E04907B6
:1002C00004D511A5012401E0AFF3008000210A222A
:1002D00006F1240709E0B0FBF2FCB0FBF2F302FBED
:1002E0001C00303078541846491C0028F3D12346AE
:1002F0002A463046BDE8F04100F00BB8000000008F
:100300002D0000002B000000200000007047704707
:1003100070472DE9F0470D4699469246044600F194
:1003200024080168880604D5E06921F010012160E5
:1003300000E00120A84201DD471B00E00027A16981
:100340007A1902EB0900081AA0612078C00602D4CD
:100350002046AFF30080002608E0D4E901211AF816
:1003600006009047206A401C761C20624E45F4DB54
:100370002078C0060AD52046AFF3008006E0D4E915
:10038000012130209047206A401C2062381EA7F1CE
:100390000107F4DC07E0D4E9012118F805009047D3
:1003A000206A401C2062281EA5F10105F3DC2046CE
:1003B000AFF300802078000602D50220BDE8F08768
:1003C0000120FBE701694A1C02610878704700B50B
:1003D0008FB0CDE901310021059105497944CDE97E
:1003E000031011466846FFF721FF0FB000BD000063
:1003F000E5FFFFFF0A6802F8010B0A6070477546C7
:1004000000F02CF8AE4605006946534620F0070080
:10041000854618B020B5FFF7E3FEBDE820404FF059
:1004200000064FF000074FF000084FF0000BAC46FD
:10043000ACE8C009ACE8C009ACE8C009ACE8C00948
:1004400021F007018D46704710B50446AFF30080D8
:100450002046BDE81040FFF7AFBE000000487047DF
:100460000800002001491820ABBEFEE7260002006C
:10047000704700008268002942F0010308BF22F0A3
:100480000103836070470000C06C80B270470000B9
:100490000068084018BF01207047000080B542681E
:1004A0004FF6FF63CFF6F07302EA030C0B680A798C
:1004B00043EA0C0343EA0222426082684FF2FD7372
:1004C000CFF6F17302EA030CD1E902E24B7942EA7A
:1004D0000C0242EA0E0242EA43028260C26A097CCE
:1004E00022F470020139C9B242EA0151C16280BDF1
:1004F000B0B501EB410C4FF0100E092988BFACF1EB
:100500001E0C88BF4FF00C0E50F80E40072505FA60
:100510000CF5AC4303FA0CF32343062A40F80E30E3
:1005200003D834306FF0040307E00C2A87BF2C3067
:100530006FF0400330306FF0220302EB8202056857
:100540001A441F23934025EA030391401943016095
:10055000B0BD00008268002942F4A00308BF22F465
:10056000A00383607047000080B500F02FF940F2CF
:100570000000C2F20000006844F6D351C1F26201EB
:10058000A0FB0101880900F003F980BD2DE9F041CD
:10059000CA7802F00F0CD30644BF8B784CEA030CE8
:1005A00009880B0621D0056800234FF001084FF0A1
:1005B0000F0E002608E000BF282A08BF4761013659
:1005C000082E03F104030FD008FA06F70F42F6D005
:1005D0000EFA03F425EA04040CFA03F5482A45EA66
:1005E0000405E9D10761EAE70560B1F5807F38BF0E
:1005F000BDE8F081446800234FF4807E4FF00F087F
:10060000002607E0282A08BF47610136082E03F1BB
:10061000040310D00EFA06F707EA0105BD42F4D133
:1006200008FA03F5AC430CFA03F5482A44EA05043A
:10063000E8D10761E9E74460BDE8F081002941F2B3
:100640001801C4F202010A680CBF22EA000010433C
:100650000860704710B541F20404C4F20204226835
:1006600002F00C02082A41F20022C0F27A0218D1EC
:100670002368D4F800C0C3F3834E5FEACC330EF195
:10068000020C06D440F60012C0F23D020CFB02F24E
:1006900007E0A36A03F00F030133B2FBF3F202FB9E
:1006A0000CF20260226840F61C33C2F30312C0F65B
:1006B00000039A5C0168D14041602268C2F30222C3
:1006C0009A5C21FA02F282602268C2F3C2229A5C2A
:1006D00040F60833D140C1602268C0F60003C2F37F
:1006E00081329A5CB1FBF2F1016110BD80B500F07E
:1006F00001F880BD82B041F204000021C4F2020082
:100700000191009150F8041C41F4803140F8041C20
:1007100050F8041C01F4003100910199013101915C
:10072000009919B90199B1F5A06FF1D150F8041CE5
:10073000890354BF0021012100910099012924D18E
:10074000016801600168016001680160016821F4CD
:100750007C110160016841F49811016050F8041C9B
:1007600041F0807140F8041C50F8041C8901FBD54D
:10077000016821F003010160016841F0020101609C
:10078000016801F00C010829FAD102B0704700009D
:10079000B0B501380024B4EB106F18BFB0BD4EF2F5
:1007A0001005CEF20005686000F0DAF80720AC60B2
:1007B0002860B0BD40F26800C2F200000168002964
:1007C00008BF7047016801390160704741F20400B9
:1007D000C4F20200016801F00C01082941F2002175
:1007E000C0F27A0114D102680368C2F38342DB03CA
:1007F00002F1020205D440F60011C0F23D0151435E
:1008000006E0836A03F00F030133B1FBF3F15143B8
:1008100040F20002C2F200021160006840F60C31A2
:10082000C0F30310C0F60001085C116821FA00F063
:100830001060704780B541F20000C4F20200016808
:10084000002241F0010101604168CFF6FF02114032
:10085000416001684FF6FF72CFF6F6621140016009
:10086000016821F480210160416821F4FE014160AA
:100870004FF41F0181600021C162FFF737FF4EF680
:100880000850CEF200004FF00061016080BD000012
:100890008289002942F4005308BF22F40053838167
:1008A0007047000070B586B00446008A0D46C988BE
:1008B00020F4405008432082A0894EF6F3110840EE
:1008C000A9882A896B89084310431843A081A08A0C
:1008D000A98920F44070084301AEA0823046FFF79A
:1008E000B9FE43F6000106F10800C4F201018C4292
:1008F00008BF06F10C0000681922B4F90C1050432F
:100900002A680223002948BF012302FA03F1B0FB41
:10091000F1F048F21F51C5F2EB11A0FB01235A0977
:100920006FF0630302FB0300B4F90C300426002BC4
:1009300048BF032600FA06F000F13200A0FB0101D7
:100940004FF00F0048BF072000EA511040EA0210A4
:10095000208106B070BD00006FF35F218180704779
:100960004EF62350CEF20000F021017070470000D7
:1009700010B586B04FF4007001210124FFF75EFE30
:1009800000208DF8144042F2004404904FF460219E
:1009900001904FF48070C4F201040391ADF8080097
:1009A00001A92046FFF77AFD20460121FFF762FDED
:1009B00006B010BD40F26801C2F20001086000BF3D
:1009C00008680028FCD1704770B582B0042001216E
:1009D00004260124FFF732FEADF8044040F600047F
:1009E0000020C4F2010401AD8DF80700204629461D
:1009F000FFF7CCFD40F20020C1F603000190204635
:100A00002946FFF7C3FD4FF48060ADF8040020468F
:100A100029468DF80760FFF7B9FD02B070BD0000F0
:100A2000FFF7D2FFFFF7A4FF00F038F8FFF79CFDB7
:100A300040F26C0640F26E04C2F20006C2F20004FC
:100A400008A500BF00F010F8024630802046294675
:100A5000FFF7D8FB204600F041F84FF4FA70FFF79B
:100A6000A9FFEFE725640A0010B542F20044C4F282
:100A700001042046002101220523FFF739FD20460D
:100A80000121FFF767FD00BF20460221FFF700FDAF
:100A90000028F9D02046FFF7F7FC10BD10B584B050
:100AA0004FF480400121FFF7C9FD4FF4165043F683
:100AB0000004009000204FF44021C4F20104ADF87E
:100AC0000C00CDE9010169462046FFF7EBFE204608
:100AD0000121FFF7DDFE04B010BD0000B0B50446F3
:100AE0000078002808BFB0BD43F60005C4F2010538
:100AF00029884906FCD5C1B22846FFF72DFF14F816
:100B0000010F0028F4D1B0BD020406080000000067
:100B100000000000010203040607080900000000AD
:100B20000102030401020304060708094C0B000834
:100B300000000020040000005C010008500B0008C9
:100B400008000020800600007801000800366E01D1
:04000005080001C529
:00000001FF
