:020000040800F2
:1000000060060020A1010008A9010008AB0100085A
:10001000AD010008AF010008B101000800000000B8
:10002000000000000000000000000000B301000814
:10003000B501000800000000B7010008B901000880
:10004000BB010008BB010008BB010008BB010008A0
:10005000BB010008BB010008BB010008BB01000890
:10006000BB010008BB010008BB010008BB01000880
:10007000BB010008BB010008BB010008BB01000870
:10008000BB010008BB010008BB0100080000000024
:10009000000000000000000000000000BB0100089C
:1000A000BB010008BB010008BB010008BB01000840
:1000B000BB010008BB010008BB010008BB01000830
:1000C000BB010008BB010008BB010008BB01000820
:1000D000BB010008BB010008BB010008BB01000810
:1000E000BB010008BB010008BB01000800000000C4
:1000F0000000000000000000000000000000000000
:1001000000000000000000000000000000000000EF
:100110000000000000000000BB010008BB01000857
:1001200000F002F800F02CF80AA090E8000C8244DD
:100130008344AAF10107DA4501D100F021F8AFF2BA
:10014000090EBAE80F0013F0010F18BFFB1A43F0B5
:1001500001031847800800009008000000230024D5
:1001600000250026103A28BF78C1FBD8520728BFC7
:1001700030C148BF0B6070471FB51FBD10B510BD23
:1001800000F031F81146FFF7F7FF00F041FA00F0F8
:100190004FF803B4FFF7F2FF03BC00F057F800007C
:1001A0000948804709480047FEE7FEE7FEE7FEE70B
:1001B000FEE7FEE7FEE7FEE7FEE7FEE70448054947
:1001C000054A064B704700004D0500082101000854
:1001D0006000002060060020600200206002002015
:1001E000704770477047754600F02CF8AE46050022
:1001F0006946534620F00700854618B020B5FFF742
:10020000DDFFBDE820404FF000064FF000074FF043
:1002100000084FF0000BAC46ACE8C009ACE8C009E0
:10022000ACE8C009ACE8C00921F007018D46704771
:1002300010B50446AFF300802046BDE81040FFF73C
:10024000A8BF0000004870470000002001491820A6
:10025000ABBEFEE7260002007047000088B00790A2
:100260000691002005900490039002900190009068
:100270000698C07800F00F0005900698C078C00678
:10028000002806D5FFE70698817805980843059071
:10029000FFE70698007800284BD0FFE70798006832
:1002A000019000200390FFE7039807283DD8FFE75F
:1002B000039901208840029006980088029908401E
:1002C00004900498029988422AD1FFE7039880009D
:1002D000029002990F20884000900099019888436D
:1002E00001900598029900FA01F1019808430190E4
:1002F0000698C078282806D1FFE703990120884096
:10030000079948610BE00698C078482806D1FFE7B6
:1003100003990120884007990861FFE7FFE7FFE79D
:10032000FFE7039801300390BEE701980799086042
:10033000FFE706980088B0F5807F50DBFFE707985D
:100340004068019000200390FFE70398072842D8F7
:10035000FFE7039800F10801012088400290069809
:1003600000880299084004900498029988422DD18F
:10037000FFE703988000029002990F2088400090C8
:1003800000990198884301900598029900FA01F1BB
:100390000198084301900698C078282808D1FFE703
:1003A000039800F108010120884007994861FFE7A0
:1003B0000698C078482808D1FFE7039800F10801A3
:1003C0000120884007990861FFE7FFE7FFE70398EE
:1003D00001300390B9E7019807994860FFE708B03A
:1003E0007047000082B00190ADF80210BDF8020025
:1003F0000199486102B0704782B00190ADF80210D7
:10040000BDF802000199086102B0704782B0019006
:100410008DF803109DF8030048B1FFE7019A41F2FF
:100420001801C4F2020108681043086008E0019A4C
:1004300041F21801C4F20201086890430860FFE726
:1004400002B0704780B500F001F880BD84B0002094
:100450000390029041F20001C4F20201086840F4E6
:1004600080300860FFE741F20000C4F2020000683B
:1004700000F400300290039801300390FFE70299E6
:100480000020019039B9FFE70398B0F5A06018BFCC
:1004900001200190FFE70198C0070028E3D1FFE7A2
:1004A00041F20000C4F2020000688003002803D576
:1004B000FFE70120029002E000200290FFE702988F
:1004C00001283FD1FFE741F20401C4F2020100918B
:1004D000086808600868086008680860086820F410
:1004E0007C100860086840F49810086041F2000130
:1004F000C4F20201086840F080700860FFE741F232
:100500000000C4F2020000688001002801D4FFE767
:10051000F5E741F20401C4F20201086820F003008B
:100520000860086840F002000860FFE741F204003C
:10053000C4F20200006800F00C00082801D0FFE7B8
:10054000F4E700E0FFE704B07047000080B541F237
:100550000002C4F20202106840F00100106041F293
:100560000401C4F2020108680023CFF6FF0318401B
:10057000086010684FF6FF73CFF6F66318401060FE
:10058000106820F480201060086820F4FE000860E5
:1005900041F20801C4F202014FF41F00086041F269
:1005A0002C01C4F2020100200860FFF74BFF4EF659
:1005B0000851CEF200014FF00060086080BD0000DD
:1005C00081B00090FFE70098411E009108B1FFE75D
:1005D000F9E701B07047000080B582B00820012122
:1005E000FFF714FF10208DF807007F20ADF80400FE
:1005F0008020ADF8040003208DF8060040F600408E
:10060000C4F2010001A9FFF729FE02B080BD00007D
:1006100010B58EB0002001900D90FFF7DDFF01981E
:100620000C900B9040F6B411C0F6000102910868DE
:100630004A688B68D1F80CC0D1F810E04C69089476
:10064000CDF81CE0CDF818C005930492039088699A
:10065000C9690A910990FFE700200C90FFE70C9808
:10066000082800F39C81FFE70C98012822D1FFE7BE
:1006700000200B90FFE70B9807280FDCFFE70B9992
:1006800003A830F8211040F60040C4F20100FFF743
:10069000A9FEFFE70B9801300B90ECE7BDF81000C6
:1006A000BDF81410014340F60040C4F20100FFF70A
:1006B000A3FE69E10C9802282BD1FFE700200B90E4
:1006C000FFE70B9807280FDCFFE70B9903A830F82A
:1006D000211040F60040C4F20100FFF783FEFFE75F
:1006E0000B9801300B90ECE7BDF80C00BDF8101032
:1006F0000843BDF818100843BDF81C100843BDF8A6
:100700002410014340F60040C4F20100FFF774FEDC
:1007100039E10C9803282BD1FFE700200B90FFE76D
:100720000B9807280FDCFFE70B9903A830F821107E
:1007300040F60040C4F20100FFF754FEFFE70B98BB
:1007400001300B90ECE7BDF80C00BDF81010084329
:10075000BDF814100843BDF818100843BDF8241064
:10076000014340F60040C4F20100FFF745FE09E1F5
:100770000C9804282BD1FFE700200B90FFE70B9883
:1007800007280FDCFFE70B9903A830F8211040F68B
:100790000040C4F20100FFF725FEFFE70B9801308F
:1007A0000B90ECE7BDF80C00BDF820100843BDF835
:1007B00024100843BDF814100843BDF81810014375
:1007C00040F60040C4F20100FFF716FED9E00C9895
:1007D00005282BD1FFE700200B90FFE70B98072897
:1007E0000FDCFFE70B9903A830F8211040F600401A
:1007F000C4F20100FFF7F6FDFFE70B9801300B9004
:10080000ECE7BDF80C00BDF820100843BDF824103B
:100810000843BDF81C100843BDF81810014340F60A
:100820000040C4F20100FFF7E7FDA9E00C9806289C
:1008300025D1FFE700200B90FFE70B9807280FDC7E
:10084000FFE70B9903A830F8211040F60040C4F2EE
:100850000100FFF7C7FDFFE70B9801300B90ECE7B5
:10086000BDF80C00BDF810100843BDF8141001438A
:1008700040F60040C4F20100FFF7BEFD7FE00C9897
:10088000072831D1FFE700200B90FFE70B980728DE
:100890000FDCFFE70B9903A830F8211040F6004069
:1008A000C4F20100FFF79EFDFFE70B9801300B90AB
:1008B000ECE7BDF80C00BDF810100843BDF81410AB
:1008C0000843BDF818100843BDF81C100843BDF8D4
:1008D00020100843BDF82410014340F60040C4F244
:1008E0000100FFF789FD49E00C9808282ED1FFE7A9
:1008F00000200B90FFE70B9807280FDCFFE70B9910
:1009000003A830F8211040F60040C4F20100FFF7C0
:1009100069FDFFE70B9801300B90ECE7BDF80C0088
:10092000BDF810100843BDF814100843BDF81810A6
:100930000843BDF820100843BDF82410014340F6D9
:100940000040C4F20100FFF757FD16E000200B90B5
:10095000FFE70B9807280FDCFFE70B9903A830F897
:10096000211040F60040C4F20100FFF73BFDFFE715
:100970000B9801300B90ECE7FFE7FFE7FFE7FFE79D
:10098000FFE7FFE7FFE7FFE747F64060C0F205003B
:10099000FFF716FEFFE70C9801300C905FE6FFE7CB
:1009A0000C98002805D4FFE7FFE70C9801380C905D
:1009B000F6E751E60100000002000000040000001C
:1009C00008000000100000002000000040000000AF
:1009D00080000000E409000800000020600600001C
:0409E0005C010008AE
:04000005080001A14D
:00000001FF
