:020000040800F2
:1000000068060020BD010008C5010008C7010008FE
:10001000C9010008CB010008CD0100080000000064
:10002000000000000000000000000000CF010008F8
:10003000D101000800000000D3010008D50100082C
:10004000D7010008D7010008D7010008D701000830
:10005000D7010008D7010008D7010008D701000820
:10006000D7010008D7010008D7010008D701000810
:10007000D7010008D7010008D7010008D701000800
:10008000D7010008D7010008D701000800000000D0
:10009000000000000000000000000000D701000880
:1000A000D7010008D7010008D7010008D7010008D0
:1000B000D7010008D7010008D7010008D7010008C0
:1000C000D7010008D7010008D7010008D7010008B0
:1000D000D7010008D7010008D7010008D7010008A0
:1000E000D7010008D7010008D70100080000000070
:1000F0000000000000000000000000000000000000
:1001000000000000000000000000000000000000EF
:100110000000000000000000D7010008D70100081F
:1001200000F002F800F03AF80AA090E8000C8244CF
:100130008344AAF10107DA4501D100F02FF8AFF2AC
:10014000090EBAE80F0013F0010F18BFFB1A43F0B5
:10015000010318470C0900002C090000103A24BFC5
:1001600078C878C1FAD8520724BF30C830C144BF1C
:1001700004680C607047000000230024002500265E
:10018000103A28BF78C1FBD8520728BF30C148BFFA
:100190000B6070471FB51FBD10B510BD00F031F8E2
:1001A0001146FFF7F7FF00F025FA00F04FF803B40F
:1001B000FFF7F2FF03BC00F057F800000948804742
:1001C00009480047FEE7FEE7FEE7FEE7FEE7FEE739
:1001D000FEE7FEE7FEE7FEE704480549054A064B51
:1001E0007047000039050008210100086800002060
:1001F00068060020680200206802002070477047EF
:100200007047754600F02CF8AE4605006946534627
:1002100020F00700854618B020B5FFF7DDFFBDE8E8
:1002200020404FF000064FF000074FF000084FF05D
:10023000000B21F00701AC46ACE8C009ACE8C009EE
:10024000ACE8C009ACE8C0098D46704710B504465B
:10025000AFF300802046BDE81040FFF7A8BF0000C4
:10026000004870470400002001491820ABBEFEE79B
:100270002600020070472DE9F041024600250026C5
:10028000002000230024002791F803C00CF00F0584
:1002900091F803C00CF0100CBCF1000F03D091F8E2
:1002A00002C04CEA050591F800C0BCF1000F31D046
:1002B000146800202BE04FF0010C0CFA00F3B1F8A9
:1002C00000C00CEA03069E4220D183004FF00F0CC1
:1002D0000CFA03F7BC4305FA03FC4CEA040491F85A
:1002E00003C0BCF1280F06D14FF0010C0CFA00FC42
:1002F000C2F814C00AE091F803C0BCF1480F05D160
:100300004FF0010C0CFA00FCC2F810C0401C082889
:10031000D1D31460B1F800C0BCF1FF0F34DD5468D4
:1003200000202EE000F1080C4FF0010808FA0CF351
:10033000B1F800C00CEA03069E4221D183004FF0C1
:100340000F0C0CFA03F7BC4305FA03FC4CEA040457
:1003500091F803C0BCF1280F05D100F1080C08FA90
:100360000CF8C2F8148091F803C0BCF1480F07D113
:1003700000F1080C4FF0010808FA0CF8C2F81080E0
:10038000401C0828CED35460BDE8F081024600200E
:1003900093680B400BB1012000E0002070474161E1
:1003A00070470161704700002DE9F0470024A14625
:1003B00002212548FFF7F3FF0A2000F0EFF80221A1
:1003C0002148FFF7EEFF0A2000F0E8F802211E485E
:1003D000FFF7E5FF0A2000F0E1F800BF01211A480D
:1003E000FFF7D4FF0028F9D003E0641C012000F0DF
:1003F000D5F801211448FFF7C9FF0028F5D12046A0
:1004000000F06AFA824600F02FFA07460F4A104BB6
:1004100000F02CF9054600F0F7F881460D494846F2
:1004200000F0EDFA01D2DFF82C904FF08041484601
:1004300000F066FA01D24FF0804942F2107000F0ED
:10044000ADF84846BDE8F087000801409CC420B0E4
:100450007268A13F0000C84329B1064A926902436D
:10046000044B9A6104E0034A92698243014B9A610A
:10047000704700000010024010B500F001F810BDF8
:100480000CB50020019000902A48006840F48030AC
:100490002849086000BF2748006800F40030009039
:1004A0000198401C0190009818B90198B0F5A06F10
:1004B000F1D12048006800F4003010B10120009014
:1004C00001E0002000900098012831D119484068CF
:1004D00018494860084640684860084640684860D7
:1004E0000846406820F47C1048600846406840F4A4
:1004F000981048600846006840F08070086000BFAF
:100500000C48006800F000700028F9D009484068E5
:1005100020F00300074948600846406840F00200A8
:10052000486000BF0348406800F00C000828F9D17B
:100530000CBD00000010024010B51448006840F0E7
:1005400001001249086008464068114908400F49F7
:100550004860084600680F4908400C490860084692
:10056000006820F4802008600846406820F4FE00FF
:1005700048604FF41F0088600020C862FFF77CFFCE
:100580004FF000600449086010BD000000100240F8
:100590000000FFF8FFFFF6FE08ED00E000EB400270
:1005A000D10000BF0A1EA1F10101FBD1704700007C
:1005B00008B501210420FFF74FFF10208DF803003C
:1005C0000220ADF8000003208DF8020069460848BB
:1005D000FFF751FE28208DF803000120ADF8000040
:1005E00003208DF8020069460148FFF744FE08BD6C
:1005F00000080140FFF7DCFF03E0FFF7D5FE0149EB
:100600000860FAE70000002021F00042A2F16052E9
:10061000B2F5801F01F0004328BFD2F17F6C0BD9E7
:100620005FEA001C43EAC20242EB507018BF7047F9
:1006300028BF20F001007047B2F5801FBCBF1846EC
:1006400070474FEA410C1CF5001F02D2084600F02B
:10065000D1B970B500F0B4F800000089FFF7F6BF1B
:100660004FF00040A0F5800070470000DFF848C15F
:1006700070B51CEA111E1EBF1CEA13159EEA0C0F72
:1006800095EA0C0F00F06F8081EA030423EA4C1313
:100690004EEAD47E21EA4C1141F4801143F48013D8
:1006A000AE44A1FB024CA0FB0365AEF17F7E361980
:1006B00055EB0C05A1FB034C4CF10003A0FB021C05
:1006C00016EB0C06654153F10003094218BF46F0D2
:1006D000010613F4007F0BD14FEA03314FEA0530D6
:1006E000340341EA155140EA16506FF003020AE064
:1006F0004FEAC3214FEAC520F40241EA555140EACE
:1007000056506FF0020202EB2E4201EB025585EAD1
:10071000CE710AD05FEA440C18BF24F0004450F1B7
:10072000000041F1000120EAD47040F2FE7C6245F5
:1007300000D270BDA84214BF4FF080444FF0404437
:10074000002E08BF0024BEF1806FA8BFA1F1C041F8
:10075000BDE8704080F282804FF0000001F1C0419E
:1007600001F0004170479EEA0C0F0CEA131518BF08
:1007700095EA0C0F06D04FF0000081EA030E0EF050
:10078000004170BD00F01CF88900013E00F007B880
:1007900000F009B84FEA430C5FEA5C5C08D081EADC
:1007A000030100F05BB84FEA410C5FEA5C5CF6D1F4
:1007B0004FF00000014970470000FF070000F87F7C
:1007C0000EF1020E2EF0030E5EF8046B364205D4D5
:1007D000012A43EB030515F5001F12D8012841EB50
:1007E000010C1CF5001F0CD80ED14FEAD17C15F579
:1007F000001F0CEB4C0C0CF1020C08BF4CEBD37C33
:1008000004E04FF0080C01E04FEAD37C0CEB4C0500
:1008100026FA05F606F00706B6F1040C06D20EEB32
:10082000860CBDE870404CF0010C6047DFE80CF02E
:10083000090B02024FF000414FF00000A1F500212A
:1008400070BD19461046012851EB010418BFD4F5BC
:10085000001484BF002001F0004170BD0808A0F51D
:1008600000114FEA3101704743004FEAD30C4FEAC1
:100870003C0C43401FBF40070CF1605113F0FE4F8A
:1008800070471CF0006F03D100200CF0004170474E
:100890000CF0004343EA507010B540EACC0000F081
:1008A00063F800BF000000924FEA0001FFF7D6BFD7
:1008B0004FF000414FF00000A1F5002170474010BB
:1008C00058BFC0F14040491058BFC1F1404181427A
:1008D000EFF3008070470000B0FA80F310FA03F2E3
:1008E000C3F19D030AD0D90501EB1220530638BF8E
:1008F000704700F1010008BF20F0010070470000C0
:1009000050EA010C00F113801CF5000F58BFBCF534
:10091000000F01D48842704707D710F5000F58BF69
:1009200011F5000F15D488427047894270471CF5B5
:10093000000F04D5BCF5000FF7D5814270474FF08A
:10094000807C1CEB400F38BF1CEB410F01D2814271
:10095000704710B500F008F8922449004FF000509D
:100960004FF08051FFF7ABBF0EF1020E2EF0030ED9
:100970005EF8044B244204D44FEA4102B2F17F4FA7
:1009800011D84FEA4003B3F17F4F0CD80ED14FEA94
:10099000D07CB2F17F4F0CEB4C0C0CF1020C08BF79
:1009A0004CEBD17C04E04FF0080C01E04FEAD17C25
:1009B0000CEB4C0324FA03F404F00704B4F1040C28
:1009C00006D20EEB840CBDE810404CF0010C6047E1
:1009D000DFE80CF0070802024FF00040A0F58000AD
:1009E00010BD0846420018BFD2F1807288BF00F0E7
:1009F000004010BDFF2141EAD050C005704751EAC8
:100A0000000C00F113801CF5000F58BFBCF5000F5F
:100A100001D48142704707D711F5000F58BF10F578
:100A2000000F15D481427047894270471CF5000FB2
:100A300004D5BCF5000FF7D5884270474FF0807C95
:100A40001CEB410F38BF1CEB400F01D288427047AE
:100A500080EA010081EA000180EA0100FFF779BF26
:100A6000800A000800000020040000005C0100086B
:100A7000840A0008040000206406000078010008D1
:040A80000000000072
:04000005080001BD31
:00000001FF
