:020000040800F2
:100000005804002001010008510B00084D0B0008A6
:100010004F0B00088D010008010D000800000000D2
:10002000000000000000000000000000550B000868
:100030008F01000800000000530B0008570B000858
:100040001B0100081B0100081B0100081B01000820
:100050001B0100081B0100081B0100081B01000810
:100060001B0100081B0100081B0100081B01000800
:100070001B0100081B0100081B0100081B010008F0
:100080001B0100081B0100081B0100081B010008E0
:100090001B0100081B0100081B0100081B010008D0
:1000A0001B0100081B0100081B0100081B010008C0
:1000B0001B0100081B010008000000001B010008D4
:1000C0001B01000800000000000000001B010008E8
:1000D000000000001B0100081B01000800000000D8
:1000E0001B0100081B0100081B010008DFF80CD0F1
:1000F00000F03AF800480047410D0008580400207D
:100100000648804706480047FEE7FEE7FEE7FEE7B1
:10011000FEE7FEE7FEE7FEE7FEE7FEE79D0B0008D1
:10012000ED000008D2B201E000F8012B491EFBD21D
:1001300070470022F6E710B513460A4604461946F2
:10014000FFF7F0FF204610BD30B5054600200346FE
:1001500000E05B1C934205D2EC5CC85C201A01D124
:10016000002CF6D130BD0000064C074D06E0E068DB
:1001700040F0010394E8070098471034AC42F6D3EE
:10018000FFF7B8FFDC0E0008FC0E0008FEE7704722
:1001900070B5044600F0F4F80546601C02D004482F
:1001A0000078044400F0ECF8401BA042FAD370BD84
:1001B000040000202DE9F84FDFF89C91002409F19C
:1001C000040A0AF1040B23460F270BF1040EBBE0CF
:1001D0000125A5402A40AA4276D1DFF880C14E68A9
:1001E000A6EB0C0866452BD00DDC032E34D005DCC5
:1001F00036B3012E19D0022E2FD11BE0112E16D0AE
:10020000122E2AD119E0B8F5881F19D006DCB8F5EE
:10021000803F15D0B8F5801F1FD111E0B8F5001F41
:100220000ED0B8F5041F18D10AE0CB6815E0CB68F2
:100230001B1D12E0CB6808330FE0CB680C330CE0D9
:100240008B682BB1012B4FF0080303D0456104E00C
:10025000042302E0056100E00023FF2A01D80646DE
:1002600001E000F104064FEA840501D9A5F120055B
:10027000D6F8008007FA05FC28EA0C0803FA05F511
:1002800048EA0508C6F800804D68ED005BD5344D9E
:10029000AE6946F00106AE61AD6924F0030605F0D3
:1002A000010500952F4D06EB050CDCF80850A6075C
:1002B000360F07FA06F825EA0805DFF8AC80404556
:1002C00003D14FF0000810E03DE0DFF8A08040458A
:1002D00002D14FF0010808E0DFF89480404502D1D8
:1002E0004FF0020801E04FF0030808FA06F848EA68
:1002F0000508CCF808804D68D9F80060ED034D463C
:1003000001D5164300E096432E604D68DAF8006090
:10031000AD03554601D5164300E096432E604D6867
:10032000DBF80060ED025D4601D5164300E0964320
:100330002E604D68DEF80060AD02754601D51643AB
:1003400000E096432E60641C0A6832FA04F57FF4DC
:100350003FAFBDE8F88F000000040140000011101D
:10036000001002400000014000080140000C014064
:10037000001001400AB1016170470904FBE7000069
:10038000014880687047000004000020024881682E
:10039000027811448160704704000020074810B5BE
:1003A000016841F010010160032000F067F80020AF
:1003B00000F006F800F024F8002010BD00200240F4
:1003C00070B50D4D04464FF47A712878B1FBF0F00A
:1003D0000A490968B1FBF0F000F0DEFA48B9102CC8
:1003E00007D200222146501E00F028F800206C6041
:1003F00070BD012070BD000004000020100000202E
:100400000C4808B5816941F001018161816901F001
:1004100001010091C16941F08051C161C06900F0E2
:10042000805000900448416821F0E06141F0806113
:10043000416008BD0010024000000140F0B40E4BC6
:100440001B680C46C3F30223C3F10705042D00D932
:100450000425191D072901D2002300E0DB1E012617
:1004600006FA05F1491E214099409E40761E16402D
:100470003143F0BC00F045BC0CED00E0064900F053
:10048000070208684FF6FF03184040EA0220034ABB
:1004900010430860704700000CED00E00000FA0512
:1004A0002DE9F0470F46050061D0434E306800F05B
:1004B0000700B84209D2306820F0070038433060A6
:1004C000306800F00700B84251D128683B4C8107E2
:1004D00012D5400703D5606840F4E060606028787A
:1004E000000703D5606840F4605060606068A968E8
:1004F00020F0F000084360602878C00728D06868C2
:10050000012810D02168022810D0890700292EDA8E
:10051000616821F0030101436160FFF731FF80460C
:1005200041F288390DE021688903EFE78901EDE7A1
:10053000FFF726FFA0EB0801494502D90320BDE8DB
:10054000F0876068696800F00C00B0EB810FEFD1B4
:10055000306800F00700B8420BD9306820F007007F
:1005600038433060306800F00700B84201D0012005
:10057000E5E72878400705D56068E96820F4E06081
:10058000084360602878000706D56068296920F470
:10059000605040EAC100606000F038F86168084AC5
:1005A000C1F30311515CC840064908600648006861
:1005B000FFF706FF0020C2E70020024000100240C3
:1005C000C40E00081000002008000020044805495F
:1005D00000684968044AC1F30221515CC840704771
:1005E0001000002000100240D40E00080448054905
:1005F00000684968044AC1F3C221515CC840704791
:100600001000002000100240D40E000812A185B096
:100610000FC98DE80F0014A0144A006804905168B7
:10062000134801F00C03042B10D0082B0ED1C1F39A
:100630008343C9031DF803000AD5516804AAC1F316
:100640004041515C0A4A5043B0FBF1F005B070479D
:1006500008494843FAE700000203040506070809B1
:100660000A0B0C0D0E0F10100102000000100240CA
:1006700000127A0000093D002DE9F84F040070D007
:100680002078C04DC00749D06868C0F381000128B8
:1006900007D06868C0F38100022809D16868C003E8
:1006A00006D52868800339D560680028E7D035E092
:1006B0006068B0F5803F0BD010B1B0F5A02F11D01D
:1006C000286820F480302860286820F4802002E028
:1006D000286840F480302860606890B1FFF750FED1
:1006E00006460AE0286840F480202860F0E700BF52
:1006F000FFF746FE801B642873D828688003F7D56F
:100700000CE0FFF73DFE064605E000BFFFF738FEB0
:10071000801B6428F0D828688003F7D420789A4E8C
:1007200080074FF001094FF0000839D5686810F0D4
:100730000C0F07D06868C0F38100022809D16868EF
:10074000C00306D42868800714D52069012808D181
:1007500010E02069B0B1C6F80090FFF711FE07461F
:1007600005E00AE1FFF70CFEC01B0228C4D8286888
:100770008007F7D52868616920F0F80040EAC100D9
:1007800028600DE0C6F80080FFF7FAFD074604E098
:10079000FFF7F6FDC01B022823D828688007F7D48E
:1007A000207800072CD57948A169D9B1C0F800900C
:1007B000FFF7E6FD074604E0FFF7E2FDC01B022855
:1007C0000FD8686A8007F7D571484FF4FA5100686E
:1007D000B0FBF1F0009000BF0098411E0091FAD2EA
:1007E0000EE080E0C0F80080FFF7CAFD074604E095
:1007F000FFF7C6FDC01B022875D8686A8007F7D4CA
:100800002078400760D5E8690027C00008D4E8696F
:1008100040F08050E861E869012700F080500090C6
:100820005C480168C90513D40168834641F48071AE
:100830000160FFF7A5FD824606E000BFFFF7A0FDBF
:10084000A0EB0A0064284ED8DBF80000C005F5D5FF
:10085000E06801280AD008B1052813D0286A20F0E2
:1008600001002862286A20F0040002E0286A40F0B3
:1008700001002862E06841F2883B98B1FFF780FDF3
:1008800082460BE0286A40F004002862EEE700BFD1
:10089000FFF776FDA0EB0A0159455AD8286A800770
:1008A000F6D50CE0FFF76CFD824605E0FFF768FD2A
:1008B000A0EB0A0159454CD8286A8007F6D41FB12D
:1008C000E86920F08050E861E06988B36968C1F3A5
:1008D0008101022944D00228C6F8608004D0FFF7C5
:1008E0004FFD044638E034E0FFF74AFD074604E0D8
:1008F000FFF746FDC01B02282BD828688001F7D4DB
:10090000206AB0F5803F05D16868A16820F4003006
:1009100008436860D4E908010843696821F4741148
:1009200008436860C6F86090FFF72AFD044606E0B9
:1009300025E000BFFFF724FD001B022809D8286826
:100940008001F7D51BE000BFFFF71AFD001B02284E
:1009500002D90320BDE8F88F28688001F4D40EE0A6
:100960000128F7D06868226A00F48031914204D1EE
:10097000616A00F47010884201D00120EAE700208B
:10098000E8E70000001002400000424280044242BA
:10099000100000200070004010B5401EB0F1807FB4
:1009A00001D3012010BD4FF0E02460610F216017DA
:1009B00000F0A7F90020A06107202061002010BDF1
:1009C00070B5040004D094F83900002510B106E099
:1009D000012070BD84F83850204600F023F8242010
:1009E00084F839002068C16821F40051C1602046B4
:1009F00000F0F8F82068016921F490410161206855
:100A0000416921F02A0141612068C16841F4005127
:100A1000C160E563202084F8390084F83A000020A2
:100A200070BD000030B585B000240094019402949C
:100A3000039400681449884224D11448816941F420
:100A400080418161816901F480410491816941F0B3
:100A50000401816180690E4D00F0040004904FF4A0
:100A60000070009002200190032003906946284600
:100A7000FFF7A0FB2815CDE900046946284602943B
:100A8000FFF798FB05B030BD003801400010024070
:100A9000000801402DE9F843044690F83A009946D1
:100AA00016460D4620284FD195B18EB194F83800E6
:100AB000012849D0012084F838000027E76322206C
:100AC00084F83A00FFF75CFCA6858046E68531E0B5
:100AD0000120BDE8F883E08D401EE085A068434614
:100AE000B0F5805F4FF000024FF020012046CDF8B6
:100AF000009004D000F0D2F898B10320E9E700F0AC
:100B0000CDF80028F9D1206900282068406803D07A
:100B1000C1B225F8011B0DE0C0F3080125F8021B46
:100B200008E0206900282068406801D000F07F00BC
:100B300005F8010BE08D0028CDD1202084F83A0083
:100B400084F838700020C4E70220C2E7FEE7FEE721
:100B5000704770477047FFF719BC10B590B0282157
:100B60006846FFF7E6FA14210AA8FFF7E2FA022026
:100B700000900120049010200024059007946846FE
:100B8000FFF77AFD0F20CDE90A040C940D940021A3
:100B90000AA80E94FFF784FC10B010BD0D48016840
:100BA00041F00101016041680B4A11404160016858
:100BB0000A4A11400160016821F480210160416806
:100BC00021F4FE0141604FF41F0181600449C0031C
:100BD00008607047001002400000FFF8FFFFF6FEBB
:100BE00008ED00E02DE9F041044600680169E26883
:100BF00021F44051114301612169A06808436169F2
:100C000008432168CA6841F20C639A430243CA60F0
:100C100020684169A26921F44071114341611E4974
:100C2000206864253226884202D1FFF7DFFC01E00C
:100C3000FFF7CCFC00EBC00101EB001160686FF026
:100C400018078000B1FBF0F2B2FBF5F2B1FBF0F354
:100C50007A4303EB8202B1FBF0F306EB0212B2FB24
:100C6000F5F2B3FBF5F302F0F00202EB0312B1FB75
:100C7000F0F3B1FBF0F0B0FBF5F0784303EB80004C
:100C800006EB0010B0FBF5F0216800F00F001044F7
:100C90008860BDE8F0810000003801402DE9F04196
:100CA000984617460E460446069D1DE0681C1BD05C
:100CB0002DB1FFF765FBA0EB0800A84214D920680E
:100CC000C16821F4D071C1602068416921F001013F
:100CD0004161202084F8390084F83A00002084F82B
:100CE00038000320BDE8F0812068006836EA000083
:100CF00004D00020B842D9D00020F3E70120F9E762
:100D0000FEE70907090E002804DB00F1E02080F867
:100D10000014704700F00F0000F1E02080F8141D6F
:100D2000704702E008C8121F08C1002AFAD17047B4
:100D30007047002001E001C1121F002AFBD170475B
:100D400086B0FFF72BFBFFF708FF00254E48009504
:100D5000019502950395816941F0080181618169DE
:100D600001F008010491816941F004018161806909
:100D7000464C00F00400049000220F212046FFF7AB
:100D8000F9FA01260F20CDE90006CDE902566946A1
:100D90002046FFF70FFA3F483D4901604FF41651D6
:100DA000C0E901150C21C560C0E904518561C56128
:100DB000FFF706FE354C0C3425604FF49670FFF7B4
:100DC000E7F94FF4FA770A23012233493148FFF754
:100DD00061FE012231A13048FFF7B6F900283ED06C
:100DE00001222FA12C48FFF7AFF9002839D00122AA
:100DF0002CA12948FFF7A8F978B301222AA1264897
:100E0000FFF7A2F950B3012228A12348FFF79CF96C
:100E100068B3012226A12048FFF796F948B30122C2
:100E200024A11D48FFF790F928B3012222A11A48F6
:100E3000FFF78AF908B3012220A11748FFF784F9C8
:100E4000E8B101221EA11448FFF77EF9C8B10A20BB
:100E500020603846FFF79CF9B5E704E005E025601F
:100E6000F7E72660F5E70220F2E70320F0E7042029
:100E7000EEE70520ECE70620EAE70720E8E7082090
:100E8000E6E70920E4E7000000100240000C014002
:100E90000038014014000020000000203000000055
:100EA0003100000032000000330000003400000078
:100EB0003500000036000000370000003800000058
:100EC00039000000000000000000000001020304DF
:100ED000060708090000000001020304FC0E0008D8
:100EE0000000002014000000220D0008100F000870
:100EF0001400002044040000320D0008000000002F
:100F00000100000010000000000000000024F400B8
:04000005080000ED02
:00000001FF
