:020000040800F2
:10000000B8060020A9010008B1010008B3010008EA
:10001000B5010008B7010008B901000800000000A0
:10002000000000000000000000000000BB0100080C
:10003000BD01000800000000BF010008C101000868
:10004000C3010008C3010008C3010008C301000880
:10005000C3010008C3010008C3010008C301000870
:10006000C3010008C3010008C3010008C301000860
:10007000C3010008C3010008C3010008C301000850
:10008000C3010008C3010008C3010008000000000C
:10009000000000000000000000000000C301000894
:1000A000C3010008C3010008C3010008C301000820
:1000B000C3010008C3010008C3010008C301000810
:1000C000C3010008C3010008C3010008C301000800
:1000D000C3010008C3010008C3010008C3010008F0
:1000E000C3010008C3010008C301000800000000AC
:1000F0000000000000000000000000000000000000
:1001000000000000000000000000000000000000EF
:100110000000000000000000C3010008C301000847
:1001200000F002F800F031F80AA090E8000C8244D8
:100130008344AAF10107DA4501D100F026F8AFF2B5
:10014000090EBAE80F0013F0010F18BFFB1A43F0B5
:1001500001031847A4070000B4070000002300248F
:1001600000250026103A28BF78C1FBD8520728BFC7
:1001700030C148BF0B607047642900F07D800020CB
:1001800070471FB51FBD10B510BD00F02AF911460C
:10019000FFF7F7FF00F02CFB00F048F903B4FFF77E
:1001A000F2FF03BC00F050F90948804709480047B6
:1001B000FEE7FEE7FEE7FEE7FEE7FEE7FEE7FEE717
:1001C000FEE7FEE704480549054A064B7047000074
:1001D0002D06000821010008B8000020B806002004
:1001E000B8020020B80200200FB41CB5074B06AAC5
:1001F0007B4469460090059800F0DBF800206946D2
:1002000000F0EAF81CBC5DF814FB0000E5010000FA
:100210002DE9F0410E460446002020622046E168A8
:10022000884730B3252805D0D4E901219047206ABA
:10023000401CF2E7E168204600278847050018D0F7
:10024000A5F14100192802D820354FF40067324645
:10025000294620462760FFF78FFF40B1012804D0D0
:10026000F61D26F007060836D8E7361DD6E72846DD
:10027000DAE7206ABDE8F0812DE9F0410646002466
:1002800010687529314616A510D0AFF300800028FC
:1002900002DA404213A507E031688A0701D512A5AA
:1002A00002E0490704D511A5012401E0AFF3008065
:1002B00000210A2206F1240709E0B0FBF2FCB0FBA2
:1002C000F2F302FB1C00303078541846491C002819
:1002D000F3D123462A463046BDE8F04100F00BB882
:1002E000000000002D0000002B0000002000000096
:1002F0007047704770472DE9F0470D469946924682
:10030000044600F124080168880604D5E06921F05C
:100310001001216000E00120A84201DD471B00E040
:100320000027A1697A1902EB0900081AA061207858
:10033000C00602D42046AFF30080002608E0D4E9CE
:1003400001211AF806009047206A401C761C2062A2
:100350004E45F4DB2078C0060AD52046AFF3008076
:1003600006E0D4E9012130209047206A401C206239
:10037000381EA7F10107F4DC07E0D4E9012118F8E1
:1003800005009047206A401C2062281EA5F1010547
:10039000F3DC2046AFF300802078000602D502206F
:1003A000BDE8F0870120FBE701694A1C026108787B
:1003B000704700B58FB0CDE90131002105910549A5
:1003C0007944CDE9031011466846FFF721FF0FB0CD
:1003D00000BD0000E5FFFFFF0A6802F8010B0A609C
:1003E0007047754600F02CF8AE4605006946534646
:1003F00020F00700854618B020B5FFF7E3FEBDE802
:1004000020404FF000064FF000074FF000084FF07B
:10041000000BAC46ACE8C009ACE8C009ACE8C009C8
:10042000ACE8C00921F007018D46704710B50446BD
:10043000AFF300802046BDE81040FFF7AFBE0000DC
:10044000004870470000002001491820ABBEFEE7BD
:10045000260002007047000081B00021009146F69E
:100460000041C4F2000100910099084400900098F6
:10047000008801B07047000081B00022009246F66B
:100480000042C4F200020092009A104400900098CA
:10049000016001B0704700002DE9F047CA7802F012
:1004A0000F0CD30644BF8B784CEA030C09880B066B
:1004B00025D082465AF8144B00F1100E00254FF05B
:1004C00001094FF00F08002706E000BF1E6001374A
:1004D000082F05F1040511D009FA07F60E42F6D0EF
:1004E00008FA05F324EA03030CFA05F41C43282A4E
:1004F0005346EBD0482AEAD17346E7E70460B1F5EA
:10050000807F38BFBDE8F087436800F1100E00F12E
:10051000140900254FF4807A4FF00F08002705E0FA
:1005200034600137082F05F1040512D00AFA07F4E8
:1005300004EA0106A642F4D108FA05F6B3430CFA20
:1005400005F63343282A4E46EAD0482AE9D17646B2
:10055000E6E74360BDE8F0872021C4F20E21086081
:1005600070470000002941F21C01C4F202010A6830
:100570000CBF22EA0000104308607047002941F2D6
:100580001801C4F202010A680CBF22EA00001043FD
:100590000860704710B541F20404C4F202042268F6
:1005A00002F00C02082A41F20022C0F27A0218D1AD
:1005B0002368D4F800C0C3F3834E5FEACC330EF156
:1005C000020C06D440F60012C0F23D020CFB02F20F
:1005D00007E0A36A03F00F030133B2FBF3F202FB5F
:1005E0000CF20260226840F6E803C2F30312C0F680
:1005F00000039A5C0168D14041602268C2F3022284
:100600009A5C21FA02F282602268C2F3C2229A5CEA
:1006100040F6E403D140C1602268C0F60003C2F393
:1006200081329A5CB1FBF2F1016110BD82B041F2FE
:100630000400C4F2020050F8041C002241F0010141
:1006400040F8041C0168CFF6FF021140016050F829
:10065000041C4FF6FF72CFF6F662114040F8041CFE
:1006600050F8041C21F4802140F8041C016821F496
:10067000FE0101604FF41F01416000218162019180
:10068000009150F8041C41F4803140F8041C00BF74
:1006900050F8041C01F400310091019901310191DD
:1006A000009919B90199B1F5A06FF1D150F8041C66
:1006B000890354BF0021012100910099012924D10F
:1006C000016801600168016001680160016821F44E
:1006D0007C110160016841F49811016050F8041C1C
:1006E00041F0807140F8041C50F8041C8901FBD5CE
:1006F000016821F003010160016841F0020101601D
:10070000016801F00C010829FAD14EF60850CEF22A
:1007100000004FF00061016002B07047828900293B
:1007200018BF012122F4005242EA41318181704711
:1007300070B586B00446008A0D46C98820F4405042
:1007400008432082A0894EF6F3110840A9882A891F
:100750006B89084310431843A081A08AA98920F41B
:100760004070084301AEA0823046FFF713FF43F606
:10077000000106F10800C4F201018C4208BF06F135
:100780000C0000681922B4F90C1050432A680123A8
:10079000B1F1FF3FC8BF022302FA03F1B0FBF1F051
:1007A00048F21F51C5F2EB11A0FB01235A096FF06B
:1007B000630302FB0300B4F90C300326B3F1FF3FDF
:1007C000C8BF042600FA06F000F13200A0FB0101C8
:1007D0004FF00700C8BF0F2000EA511040EA021096
:1007E000208106B070BD00006FF35F2181807047EB
:1007F00084B043F6000404200121C4F20104FFF791
:10080000BDFE40F20020C1F60300009040F600005B
:10081000C4F201006946FFF73FFE4FF4804001211A
:10082000FFF7ACFE4FF41650009000204FF400216B
:10083000ADF80C00CDE9010169462046FFF778FFCD
:1008400020460121FFF76AFF4FF080500121FFF79A
:1008500089FE4FF000600121FFF784FE0120FFF7C1
:100860007BFE40F2600940F2B20640F26207C2F23B
:100870000009C2F20006C2F200070FF24C0800BFE6
:100880000420FFF7E9FD0130A9F8000081B204203F
:10089000FFF7F2FD3088B9F800300130308082B2C5
:1008A00038464146FFF7A0FC38780028E8D03D469E
:1008B00021884906FCD5C1B22046FFF795FF15F8FF
:1008C000010F0028F4D1DBE74E4D5F44523A20255A
:1008D00064207C7C7C20424B505F4452313A20257E
:1008E000640D0A000204060800000000010203046F
:1008F0000102030406070809080900080000002097
:08090000B80600005C010008CC
:04000005080001A945
:00000001FF
