:020000040800F2
:1000000060060020A1010008A9010008AB0100085A
:10001000AD010008AF010008B101000800000000B8
:10002000000000000000000000000000B301000814
:10003000B501000800000000B7010008B901000880
:10004000BB010008BB010008BB010008BB010008A0
:10005000BB010008BB010008BB010008BB01000890
:100060005D020008BB010008BB010008BB010008DD
:10007000BB010008BB010008BB010008BB01000870
:10008000BB010008BB010008BB0100080000000024
:1000900000000000000000000000000089020008CD
:1000A000BB010008BB010008BB010008BB01000840
:1000B000BB010008BB010008BB010008BB01000830
:1000C000BB010008BB010008BB010008BB01000820
:1000D000BB010008BB010008BB010008BB01000810
:1000E000BB010008BB010008BB01000800000000C4
:1000F0000000000000000000000000000000000000
:1001000000000000000000000000000000000000EF
:100110000000000000000000BB010008BB01000857
:1001200000F002F800F02CF80AA090E8000C8244DD
:100130008344AAF10107DA4501D100F021F8AFF2BA
:10014000090EBAE80F0013F0010F18BFFB1A43F0B5
:10015000010318473C0600004C0600000023002461
:1001600000250026103A28BF78C1FBD8520728BFC7
:1001700030C148BF0B6070471FB51FBD10B510BD23
:1001800000F031F81146FFF7F7FF00F095FA00F0A4
:100190004FF803B4FFF7F2FF03BC00F057F800007C
:1001A0000948804709480047FEE7FEE7FEE7FEE70B
:1001B000FEE7FEE7FEE7FEE7FEE7FEE70448054947
:1001C000054A064B70470000CD04000821010008D5
:1001D0006000002060060020600200206002002015
:1001E000704770477047754600F02CF8AE46050022
:1001F0006946534620F00700854618B020B5FFF742
:10020000DDFFBDE820404FF000064FF000074FF043
:1002100000084FF0000BAC46ACE8C009ACE8C009E0
:10022000ACE8C009ACE8C00921F007018D46704771
:1002300010B50446AFF300802046BDE81040FFF73C
:10024000A8BF0000004870470000002001491820A6
:10025000ABBEFEE7260002007047000080B54020DC
:1002600000F02EF860B1FFE740F60040C4F2010054
:10027000072100F0E1F84FF4A24000F09FF9FFE7FA
:10028000042000F017F880BD80B5402000F018F879
:1002900060B1FFE740F60040C4F20100072100F022
:1002A000CDF84FF4A24000F089F9FFE7402000F0BC
:1002B00001F880BD40F21441C4F2010108607047AA
:1002C00040F20041C4F201010A6849690240084055
:1002D00018BF0120002A18BF0122104070470000FB
:1002E0008179002940F20041C4F201011FD0026867
:1002F0000B6893430B604B6893434B60037943EA6D
:10030000010CDCF800301A43CCF8002002688B683E
:1003100093438B60CB689343CB60407910280ED118
:10032000886810438860C8681043C86070470279C5
:10033000006811430A6822EA000008607047084319
:10034000016811430160704710B50C22082402EACD
:10035000810201F0FC01C4F201044FF00F0C51F8CE
:1003600004E00CFA02F32EEA03030B510B59904000
:100370001843085110BD00002DE9F047CA7802F07B
:100380000F0CD30644BF8B784CEA030C09880B068C
:1003900025D082465AF8144B00F1100E00254FF07C
:1003A00001094FF00F08002706E000BF1E6001376B
:1003B000082F05F1040511D009FA07F60E42F6D010
:1003C00008FA05F324EA03030CFA05F41C43282A6F
:1003D0005346EBD0482AEAD17346E7E70460B1F50B
:1003E000807F38BFBDE8F087436800F1100E00F150
:1003F000140900254FF4807A4FF00F08002705E01C
:1004000034600137082F05F1040512D00AFA07F409
:1004100004EA0106A642F4D108FA05F6B3430CFA41
:1004200005F63343282A4E46EAD0482AE9D17646D3
:10043000E6E74360BDE8F0874161704701617047BE
:1004400010B5C17800294EF20011CEF200011AD089
:100450004EF60C52CEF200021268072323EA122253
:100460000F23C2F1040C23FA02F24378847890F847
:1004700000E003FA0CF322401A43120101EB0E03D1
:1004800083F8002300E080310078012300F01F0290
:1004900003FA02F2C0F3421041F8202010BD000020
:1004A00040F080604EF60C5140F0FD70CEF200013D
:1004B00008607047002941F21801C4F202010A687D
:1004C0000CBF22EA000010430860704782B041F27E
:1004D0000400C4F2020050F8041C002241F00101A3
:1004E00040F8041C0168CFF6FF021140016050F88B
:1004F000041C4FF6FF72CFF6F662114040F8041C60
:1005000050F8041C21F4802140F8041C016821F4F7
:10051000FE0101604FF41F014160002181620191E1
:10052000009150F8041C41F4803140F8041C00BFD5
:1005300050F8041C01F4003100910199013101913E
:10054000009919B90199B1F5A06FF1D150F8041CC7
:10055000890354BF0021012100910099012924D170
:10056000016801600168016001680160016821F4AF
:100570007C110160016841F49811016050F8041C7D
:1005800041F0807140F8041C50F8041C8901FBD52F
:10059000016821F003010160016841F0020101607E
:1005A000016801F00C010829FAD14EF60850CEF28C
:1005B00000004FF00061016002B0704781B0ADF8FB
:1005C0000200FFE7BDF80200411EADF8021008B1BD
:1005D000FFE7F7E701B0704780B584B0082001213C
:1005E0000191FFF767FF019910200090FFF762FF6C
:1005F000009901988DF80F10ADF80C0003208DF8CC
:100600000E0040F60040C4F2010003A90291FFF77A
:10061000B3FE029928208DF80F004420ADF80C009D
:1006200041F20000C4F20100FFF7A6FE04B080BD55
:1006300080B588B0012102910846FFF73BFF0220F8
:1006400000900621FFF780FE00990846FFF77CFE28
:100650000298442106918DF81E00002003908DF829
:100660001C00082001908DF81D0006A8FFF738FE39
:100670004FF4C060FFF714FF019A029903988DF8B8
:1006800014208DF817108DF815008DF8160005A8A8
:100690000490FFF7D5FE029A0399049817238DF86A
:1006A00014308DF817208DF815208DF81610FFF7EF
:1006B000C7FE08B080BD000080B58EB00020069057
:1006C0000D90FFF789FFFFF7B3FF069840F28473A0
:1006D000C0F6000319685A689B680C930B920A9144
:1006E0000990FFE700200890FFE70898022820DC27
:1006F000FFE708990AA8039030F8211040F600405F
:10070000C4F201000490FFF799FE47F6406005909F
:10071000FFF754FF03990498089A31F82210FFF765
:100720008BFE0598FFF74AFFFFE708980130089015
:10073000DBE701200790FFE70798012820DCFFE7AF
:1007400007990AA8009030F8211040F60040C4F242
:1007500001000190FFF772FE47F640600290FFF73C
:100760002DFF00990198079A31F82210FFF764FED7
:100770000298FFF723FFFFE7079801300790DBE7B8
:10078000B0E70000010000000200000004000000CB
:10079000A007000800000020600600005C010008BF
:04000005080001A14D
:00000001FF
