:020000040800F2
:1000000098060020C5010008CD010008CF010008B6
:10001000D1010008D3010008D5010008000000004C
:10002000000000000000000000000000D7010008F0
:10003000D901000800000000DB010008DD01000814
:10004000DF010008DF010008DF010008DF01000810
:10005000DF010008DF010008DF010008DF01000800
:10006000DF010008DF010008DF010008DF010008F0
:10007000DF010008DF010008DF010008DF010008E0
:10008000DF010008DF010008DF01000800000000B8
:10009000000000000000000000000000DF01000878
:1000A000DF010008DF010008DF010008DF010008B0
:1000B000DF010008DF010008DF010008DF010008A0
:1000C000DF010008DF010008DF010008DF01000890
:1000D000DF010008DF010008DF010008DF01000880
:1000E000DF010008DF010008DF0100080000000058
:1000F0000000000000000000000000000000000000
:1001000000000000000000000000000000000000EF
:100110000000000000000000DF010008DF0100080F
:1001200000F002F800F03FF80AA090E8000C8244CA
:100130008344AAF10107DA4501D100F034F8AFF2A7
:10014000090EBAE80F0013F0010F18BFFB1A43F0B5
:10015000010318476C1900008C190000103A24BFE5
:1001600078C878C1FAD8520724BF30C830C144BF1C
:1001700004680C607047000000230024002500265E
:10018000103A28BF78C1FBD8520728BF30C148BFFA
:100190000B607047642900F07D80002070471FB518
:1001A0001FBD10B510BD00F03FF91146FFF7F7FF76
:1001B00000F088FE00F05DF903B4FFF7F2FF03BC26
:1001C00000F060F90948804709480047FEE7FEE76C
:1001D000FEE7FEE7FEE7FEE7FEE7FEE7FEE7FEE7F7
:1001E00004480549054A064B70470000AD08000861
:1001F00021010008980000209806002098020020A5
:10020000980200200FB41CB5074B06AA7B44694630
:100210000090059800F0E7F80020694600F0F6F835
:100220001CBC5DF814FB0000FD0100002DE9F0414D
:100230000E460446002020622046E168884730B31D
:10024000252805D0D4E901219047206A401CF2E717
:10025000E168204600278847050018D0A5F1410035
:10026000192802D820354FF4006732462946204627
:100270002760FFF78FFF40B1012804D0F61D26F05C
:1002800007060836D8E7361DD6E72846DAE7206A9B
:10029000BDE8F0812DE9F04106460024106875297B
:1002A000314616A510D0AFF30080002802DA404294
:1002B00013A507E031688A0701D512A502E04907B6
:1002C00004D511A5012401E0AFF3008000210A222A
:1002D00006F1240709E0B0FBF2FCB0FBF2F302FBED
:1002E0001C00303078541846491C0028F3D12346AE
:1002F0002A463046BDE8F04100F016B80000000084
:100300002D0000002B000000200000007047704707
:10031000704710B500F080F8006810BD10B50446B5
:1003200000F07AF8046010BD2DE9F0470D469946BB
:100330009246044600F124080168880604D5E06965
:1003400021F01001216000E00120A84201DD471BDF
:1003500000E00027A1697A1902EB0900081AA061E0
:100360002078C00602D42046AFF30080002608E0C3
:10037000D4E901211AF806009047206A401C761C37
:1003800020624E45F4DB2078C0060AD52046AFF344
:10039000008006E0D4E9012130209047206A401C0B
:1003A0002062381EA7F10107F4DC07E0D4E901213F
:1003B00018F805009047206A401C2062281EA5F10D
:1003C0000105F3DC2046AFF300802078000602D55B
:1003D0000220BDE8F0870120FBE7000001694A1C0C
:1003E00002610878704700B58FB0CDE90131002176
:1003F000059105497944CDE9031011466846FFF798
:1004000015FF0FB000BD0000E5FFFFFF0A6802F80E
:10041000010B0A607047000000487047340000205C
:1004200000487047340000207546FFF7F9FFAE46DC
:1004300005006946534620F00700854618B020B5F0
:10044000FFF7CEFEBDE820404FF000064FF000075A
:100450004FF000084FF0000B21F00701AC46ACE86C
:10046000C009ACE8C009ACE8C009ACE8C0098D46D9
:10047000704710B50446AFF300802046BDE8104039
:10048000FFF79ABE01491820ABBEFEE72600020026
:10049000704721B1826842F00102826003E0826805
:1004A00022F00102826070470146C86C80B270473A
:1004B0000246002013680B400BB1012000E0002031
:1004C0007047000030B502460020002350680F4CF2
:1004D00020400D790C6844EA052420435060906860
:1004E0000B4C2040D1E902542C434D7944EA450499
:1004F00020439060D06A20F470000C7C641EE4B24B
:10050000234340EA0350D06230BD0000FFFEF0FFFD
:10051000FDF7F1FFF0B504460D4600200021092D3E
:1005200011DDE068A5F10A0606EB4607072606FA84
:1005300007F18843A5F10A0606EB460603FA06F121
:100540000843E0600CE0206905EB4507072606FA42
:1005500007F1884305EB450603FA06F108432061DD
:10056000072A0FDA606B561E06EB86071F2606FA6F
:1005700007F18843561E06EB860605FA06F1084386
:10058000606322E00D2A0FDA206BD61F06EB860788
:100590001F2606FA07F18843D61F06EB860605FAE2
:1005A00006F10843206310E0E06AA2F10D0606EBB5
:1005B00086071F2606FA07F18843A2F10D0606EB0F
:1005C000860605FA06F10843E062F0BD21B18268B3
:1005D00042F4A002826003E0826822F4A0028260FA
:1005E00070472DE9F0410246002500260020002337
:1005F0000024002791F803C00CF00F0591F803C008
:100600000CF0100CBCF1000F03D091F802C04CEAC2
:10061000050591F800C0BCF1000F31D0146800202E
:100620002BE04FF0010C0CFA00F3B1F800C00CEA1B
:1006300003069E4220D183004FF00F0C0CFA03F703
:10064000BC4305FA03FC4CEA040491F803C0BCF176
:10065000280F06D14FF0010C0CFA00FCC2F814C0B0
:100660000AE091F803C0BCF1480F05D14FF0010C2E
:100670000CFA00FCC2F810C0401C0828D1D314604A
:10068000B1F800C0BCF1FF0F34DD546800202EE04B
:1006900000F1080C4FF0010808FA0CF3B1F800C0A3
:1006A0000CEA03069E4221D183004FF00F0C0CFA96
:1006B00003F7BC4305FA03FC4CEA040491F803C0B9
:1006C000BCF1280F05D100F1080C08FA0CF8C2F8AB
:1006D000148091F803C0BCF1480F07D100F1080C59
:1006E0004FF0010808FA0CF8C2F81080401C0828E6
:1006F000CED35460BDE8F08129B1064A9269024325
:10070000044B9A6104E0034A92698243014B9A6167
:10071000704700000010024070B500210023002443
:10072000002200252C4E766806F00C0121B1042928
:1007300005D0082921D105E0284E066020E0274E8B
:1007400006601DE0244E766806F47013224E76682B
:1007500006F48034022606EB93431CB9204E5E4318
:10076000066009E01C4EF66A06F00F06751C1B4E6B
:10077000B6FBF5F65E43066002E0184E066000BF69
:1007800000BF154E766806F0F0010909154E725C3F
:100790000668D6404660104E766806F4E061090AA5
:1007A000104E725C4668D64086600B4E766806F442
:1007B0006051C90A0B4E725C4668D640C660064E50
:1007C000766806F44041890B074E725CC668B6FB3A
:1007D000F2F6066170BD00000010024000127A00BF
:1007E00000093D00040000201400002010B500F0B6
:1007F00001F810BD0CB50020019000902A48006857
:1008000040F480302849086000BF2748006800F4A1
:10081000003000900198401C0190009818B9019890
:10082000B0F5A06FF1D12048006800F4003010B19D
:100830000120009001E0002000900098012831D1B3
:1008400019484068184948600846406848600846AA
:10085000406848600846406820F47C1048600846BC
:10086000406840F4981048600846006840F0807086
:10087000086000BF0C48006800F000700028F9D044
:100880000948406820F0030007494860084640686E
:1008900040F00200486000BF0348406800F00C00D0
:1008A0000828F9D10CBD00000010024010B5144812
:1008B000006840F00100124908600846406811498C
:1008C00008400F494860084600680F4908400C4935
:1008D00008600846006820F48020086008464068E8
:1008E00020F4FE0048604FF41F0088600020C862BA
:1008F000FFF77CFF4FF000600449086010BD000066
:10090000001002400000FFF8FFFFF6FE08ED00E0D7
:1009100021B1828942F40052828104E082894DF63D
:10092000FF731A40828170472DE9F04786B0054673
:100930000E460024A24600BFA1460027B08900B1A0
:1009400000BF2F462C8A4CF6FF700440F088044309
:100950002C82AC894EF6F3100440B08831890843EC
:10096000718908430443AC81AC8A4FF6FF400440D0
:10097000B0890443AC8201A8FFF7CEFE1F4887422E
:1009800002D1DDF810A001E0DDF80CA0A88900F488
:10099000004040B10AEBCA0000EB0A103168490080
:1009A000B0FBF1F807E00AEBCA0000EB0A1031686F
:1009B0008900B0FBF1F86420B8FBF0F004012009D5
:1009C000642101FB1089A88900F4004040B1322065
:1009D00000EBC900B0FBF1F000F00700044308E0B1
:1009E000322000EB09106421B0FBF1F000F00F00A1
:1009F00004432C8106B0BDE8F087000000380140B8
:100A0000C1F30802828070472DE9F0414F1E00EBD0
:100A1000C7010446D1E9000115461E4637F006021B
:100A20000DD02A46334600F0BDFD7F1E04EBC70300
:100A3000D3E9002300F022FB37F00602F1D1022FA8
:100A400025D0042F13D0062F18BFBDE8F0812A4609
:100A5000334600F0A7FDD4E90A2300F00FFB2A4635
:100A6000334600F09FFDD4E9082300F007FB2A4637
:100A7000334600F097FDD4E9062300F0FFFA2A463A
:100A8000334600F08FFDD4E9042300F0F7FA2A463C
:100A9000334600F087FDD4E9022300F0EFFA2A463E
:100AA000334600F07FFDD4E90023BDE8F04100F0BB
:100AB000E5BA0000002213461046014900F09ABB37
:100AC0000000F03F012200F093BF002213461046C1
:100AD000114600F08FBB000000B585B0012148022F
:100AE000FFF70AFE01208DF80500002003904FF467
:100AF000602002900020009001208DF8100000205E
:100B00008DF8040069460448FFF7DCFC0121024827
:100B1000FFF7BFFC05B000BD0024014000BF011E6F
:100B2000A0F10100FBD1704708B501210420FFF7B7
:100B3000E3FD00208DF803000120ADF800006946B8
:100B40000848FFF74EFD18208DF803004FF40070A1
:100B5000ADF8000003208DF8020069460148FFF758
:100B600040FD08BD000801402DE9F04DC84A0024B1
:100B700090B0914205DA21F00043934201D805D1AB
:100B800020B110B0BDE8F04DFFF79CBFB1F5801F5C
:100B90001BDA53EA000209D0002911DA0120FFF71D
:100BA000BDFB10B0BDE8F04DFFF78FBF0220FFF78F
:100BB000B5FBFFF77FFF10B081F00041BDE8F08D7D
:100BC0006FF03504362200F013FF04EB2152C1F31D
:100BD0001308B049A2F2FF33414401F4801282F0BD
:100BE0007F6103EB225281F04051009241EA0801FB
:100BF0000022A94B00F0E0FD044608F10200A74ED8
:100C0000C0F313000D467E44032867D2D6E90023C3
:100C1000204600F047FC1ED10098002802BFD6E90C
:100C2000000110B0BDE8F08D00F0A5FC07460C46B1
:100C30009B4A9C4B00F0B6FC06460D469A4A9B4BDD
:100C40003846214600F0AEFC10B032462B46BDE8D7
:100C5000F04D00F013BA4FF05532954B204629461F
:100C600000F0A0FC0022934B00F09AFD06460F46D0
:100C700022462B461046194600F094FC32463B466D
:100C800000F090FC064600980F46F0B100F073FCAF
:100C900080468A46824A834B00F084FC32463B46BB
:100CA00000F07EFD22462B4600F086FD05460C46F0
:100CB0007D4A7E4B4046514600F074FC10B02A46F7
:100CC0002346BDE8F04D00F077BD0B4610B032462C
:100CD00020462946BDE8F04D00F06EBD00224FF0E1
:100CE0008043204600F0CAF902460B4620462946BA
:100CF00000F080FA06460F46009800F03CFCCDE973
:100D0000040132463B461046394600F04BFC0C903D
:100D100069480C9A4044019009910B46104600F036
:100D200041FC8246024665488B46C8F151080B4695
:100D300008F5D72803217844FFF766FE52465B4644
:100D400000F030FC0A905E480D9152465B4604214B
:100D50007844FFF759FE099B0C9A00F023FC844667
:100D600001980D9B40EA080860460A9A00F086F94F
:100D700083460891B8F1000F4EDD4FF0FF32204658
:100D8000294600F035FE22462B4600F00BFC80463B
:100D900000988A4660B3DDE90401414A414B00F006
:100DA00001FC099100905A4640465146089B00F0CC
:100DB00065F932463B4600F0F5FB099B009A00F0CE
:100DC0005DF94246534600F0EBFC22462B4600F00C
:100DD000F3FC04460D46DDE90401334A334B00F0D1
:100DE000E1FB10B022462B46BDE8F04D00F0E4BC1C
:100DF0005A464046089B00F041F932463B4600F017
:100E0000D1FB4246534600F0CBFC10B022462B46A5
:100E1000BDE8F04D00F0C4BC009840B3DDE904012A
:100E20001F4A204B00F0BEFB80468A465A462046A9
:100E30002946089B00F0C0FC32463B4600F0B2FB5E
:100E40004246534600F0B8FC22462B4600F0B4FC64
:100E500004460D46DDE90401134A144B00F0A2FBE1
:100E600010B022462B46BDE8F04D00F0A5BC0B4665
:100E70005A462046294600F09FFC32463B4600F089
:100E800091FB10B022462B46BDE8F04D00F088BC27
:100E90000000F07F645F09000000F03FAE0E00002C
:100EA000763C7935EF39EA3D0000E0FE422EE63F20
:100EB0005555D53F0000E03F86EBF9FF460D000099
:100EC000440D0000FFF730FEFFF706FE00F0A0F82B
:100ED00018E000F02BF80C4908800846008800F064
:100EE0003DF8044600F01AFB0849088008460288CD
:100EF00007A10C48FFF786F90A4800F0A9F80A484C
:100F0000FFF70CFEE5E700000000002002000020D3
:100F1000536963616B6C696B3A25642043200D0A49
:100F2000000000001800002080EE360010B50523F8
:100F3000012200210848FFF7EDFA01210648FFF7DA
:100F400045FB00BF02210448FFF7B2FA0028F9D0A0
:100F50000148FFF7A9FA10BD002401402DE9F04730
:100F600086B08246214890FBFAF0A0F50058A8F51B
:100F7000E268404600F0FFFA0646FFF7F5FD04463A
:100F80000D4622462B461A481A4900F00BFB06462E
:100F900022462B4600F006FB174A184BCDE900010C
:100FA00000F06CF822462B46CDE9020100F0FAFA77
:100FB0008046134A134B00F061F802460B46CDE918
:100FC00004010020104900F015F904460D464FF0C9
:100FD00066320E4B2046294600F0EEFB04460D46D5
:100FE0002046294606B0BDE8F0870000F0D8700220
:100FF000190D1714EB88773EC2C3B46FEEAF2E3FC6
:1010000090B8DE6EFD7F523F0000F03F66127140E7
:101010001FB501218803FFF76FFB4FF416500090B6
:101020000020ADF80C000820ADF80A000020ADF853
:101030000800ADF80600ADF8040069460348FFF764
:1010400073FC01210148FFF763FC1FBD003801401C
:1010500010B504460BE000BF0748008800F04000D0
:101060000028F9D021780448FFF7CAFC641C2078D6
:101070000028F0D110BD00000038014010B591EA01
:10108000030F48BF83F0004300F19E83841A71EB85
:10109000030C05D2121943EB0C03001B61EB0C018E
:1010A000DFF824E14FEA1154A4EB135C1EEA430F6E
:1010B00018BF9EEA445F73D023EA0E03DCF1200ED2
:1010C00021EA045143F4801332D322FA0CFE10EBD0
:1010D0000E0023FA0CFE41EB0E01CCF1200E03FAB8
:1010E0000EFE10EB0E0051F10001B1F5801FCCF1A6
:1010F000200E32D201EB045112FA0EF2BDE810407C
:1011000058BF7047401C38BF5FEA420218BF7047A3
:10111000002814BF20F0010041F100014FEA410313
:1011200013F5001F38BF7047A1F1C04100F032BB7A
:10113000012A43EB0302ACF1200CDCF11F0E32BF9D
:101140004FF0000E23FA0CF310EB030041EB0451B7
:10115000B4EB115FD0D0A1EB045101F58011490827
:101160005FEA300001EB04510ED350F1000038BFAC
:1011700012FA0EFE08D1BDE81040C9E7401C38BF86
:101180005FEA4202CAD1C3E7BDE810404FEA41031B
:1011900013F5001F38BF7047A1F1C04100F0FABA43
:1011A0009EEA445F08D011EA5E0FBDE8104004BF1C
:1011B00001F0004100207047BDE8104070B500F01C
:1011C0009BFA00BF64FBBE3E0000E0FF02494FF007
:1011D000000000F0DBBB00BF0000F87F491058BFE3
:1011E000C1F140415B1058BFC3F140438B42EFF364
:1011F000008070472DE9C04130B4DFF8A0C23CEA5E
:10120000111418BF3CEA131400F0EC8081EA0305C6
:101210001CEA111444EAD57418BF1CEA131500F037
:10122000C780A4EB05044FF0004545EAC12145EA1B
:10123000C32341EA505143EA525304F17F74994267
:1012400004F500344FEAC0204FEAC22208BF9042A2
:1012500000F09C804FEA13650FF24016765D4FEA6E
:10126000134506FB05F7C7F1807706FB07F74FEA42
:10127000D737A7FB03687642C8F58038A7FB06CEB0
:1012800038BFA8F1010807FB08E64FF0000EA6FBE7
:10129000028CE6FB03CEDCF1000CCEF1004E38BF31
:1012A000AEF1010EA6FB0C584FF000074FF0000501
:1012B000E6FB0E87A1FB08C6A0FB07CE16EB0E06C9
:1012C00045F10005E1FB076515F1E04E7EBFA4F591
:1012D00080345FEA46066D4116F1800745F100054E
:1012E0004FEA17274FEA066647EA0567A6F1DE468A
:1012F000B6F1805F4FEA15251FD9384624F0010C5E
:1013000005EBC471BCF1FE6F01EB0C1102D8F0BC0F
:10131000BDE8008124425CBF01F5801E9EEAC47FC7
:1013200002D4F0BCBDE80081244238D4F0BCA1F165
:10133000C041BDE8004100F02DBA4FEAD22242EA96
:1013400043524FEAD323A7FB02864FEAD02040EA5C
:10135000415007FB03661EEA0E0F4FEAD12105FB41
:10136000026658BFA6EB0056B6EB00564FEA520E87
:101370004EEAC37E18EB0E0E56EB530EBDD518EB9E
:1013800002085E417F1C55F10005B6E74FF4801559
:101390004FF000074FF000064FF00008ADE7F0BC3B
:1013A0004FF0000001F1C04101F00041BDE80081B3
:1013B00011EA0C1F0CEA131500D00CE013EA0C1F05
:1013C00000F025804FF00000F0BC81EA030101F03D
:1013D0000041BDE80081F0BCBDE8004181EA0301A5
:1013E00000F0D8B9F0BCBDE8004170B500F084F958
:1013F000097EFC3E00F007B881EA03014FF00000CF
:1014000001F00041704781EA030100F0C3B9F0BC6C
:10141000BDE800414FF0000021497047FFFDFBF996
:10142000F7F5F4F2F0EEEDEBE9E8E6E4E3E1E0DE17
:10143000DDDBDAD8D7D5D4D3D1D0CFCDCCCBCAC889
:10144000C7C6C5C4C2C1C0BFBEBDBCBBBAB9B8B7B0
:10145000B6B5B4B3B2B1B0AFAEADACABAAA9A8A8A3
:10146000A7A6A5A4A3A3A2A1A09F9F9E9D9C9C9B71
:101470009A9999989797969595949393929191901C
:101480008F8F8E8E8D8C8C8B8B8A898988888787AD
:101490008685858484838382828181800000FF0722
:1014A0000000F87F51EA030C17D41CF5801F58BFC9
:1014B000BCF5801F00F10680994218BF704708BF35
:1014C0009042704707D711F5801F58BF13F5801F52
:1014D00019D499427047894270471CF5801F08D57E
:1014E000BCF5801FF7D58B4218BF704708BF8242FA
:1014F00070474FF4001C1CEB410F38BF1CEB430F2F
:1015000001D28B42704770B500F0F6F89224490082
:101510004FF000514FF08053FFF760BE4FEA115378
:10152000A3F58063D3F11E03A8BFD3F1200C08DB21
:101530004FF0004242EAC12252EA505232FA03F01E
:10154000704709420BD4102BC4BF0020704703F52D
:10155000787CBCF1FF3F05D04FF0FF3070474FF073
:101560000000704770B500F0C7F800BF49922480B2
:1015700000207047F0E710F0004248BF4042B0FA48
:1015800080F310FA03F10AD0C3F11D0303F5806361
:101590004FEA415002EB035202EBD12170474FF06A
:1015A00000007047DFF848C170B51CEA111E1EBF6D
:1015B0001CEA13159EEA0C0F95EA0C0F00F06F80E1
:1015C00081EA030423EA4C134EEAD47E21EA4C114B
:1015D00041F4801143F48013AE44A1FB024CA0FB04
:1015E0000365AEF17F7E361955EB0C05A1FB034C6C
:1015F0004CF10003A0FB021C16EB0C06654153F1F5
:101600000003094218BF46F0010613F4007F0BD116
:101610004FEA03314FEA0530340341EA155140EAFD
:1016200016506FF003020AE04FEAC3214FEAC520CB
:10163000F40241EA555140EA56506FF0020202EBC3
:101640002E4201EB025585EACE710AD05FEA440CC6
:1016500018BF24F0004450F1000041F1000120EADD
:10166000D47040F2FE7C624500D270BDA84214BF27
:101670004FF080444FF04044002E08BF0024BEF1DC
:10168000806FA8BFA1F1C041BDE8704080F28280A8
:101690004FF0000001F1C04101F0004170479EEAA7
:1016A0000C0F0CEA131518BF95EA0C0F06D04FF07B
:1016B000000081EA030E0EF0004170BD00F01CF83E
:1016C0008900013E00F007B800F009B84FEA430C6A
:1016D0005FEA5C5C08D081EA030100F05BB84FEA86
:1016E000410C5FEA5C5CF6D14FF0000001497047A5
:1016F0000000FF070000F87F0EF1020E2EF0030E2F
:101700005EF8046B364205D4012A43EB030515F558
:10171000001F12D8012841EB010C1CF5001F0CD84A
:101720000ED14FEAD17C15F5001F0CEB4C0C0CF1DF
:10173000020C08BF4CEBD37C04E04FF0080C01E036
:101740004FEAD37C0CEB4C0526FA05F606F00706AB
:10175000B6F1040C06D20EEB860CBDE870404CF0DE
:10176000010C6047DFE80CF0090B02024FF000416A
:101770004FF00000A1F5002170BD19461046012868
:1017800051EB010418BFD4F5001484BF002001F010
:10179000004170BD0808A0F500114FEA3101704703
:1017A00091EA030F10B581F000413FF56FAC83F073
:1017B000004300F009B8000010B591EA030F48BFDC
:1017C00083F000433FF562AC841A71EB030C07D23F
:1017D00012198CF0004C43EB0C03001B61EB0C0165
:1017E000DFF8A4E14FEA1154A4EB135C1EEA430FA7
:1017F00018BF9EEA445F00F0B08023EA6E035242B5
:1018000021EA0451C3EB6E0338BF5B1EDCF1200EEE
:1018100025D322FA0CFE10EB0E0043FA0CFE41EB2E
:101820000E01CCF1200E03FA0EFE10EB0E0051F16A
:101830000001CCF1200E29D412FA0EF201EB045172
:10184000BDE8104058BF7047401C1CBFB2F1004FAC
:10185000704700280CBF491C20F00100704712EBB4
:10186000020E43EB030218BF4FF0010E4EEA420294
:10187000ACF1200CDCF11E0E54D943FA0CFE10EB37
:101880000E0051F1FF31CCF11E0ED5D50EF1010E37
:1018900012FA0EFE404141EB010101EB445C5FEAAC
:1018A0005C5C10D910EBDE7001EB045138BFBEF167
:1018B000004FBDE8104018BF704700280CBF491CFE
:1018C00020F00100704730D24FEAD42C11F50011FE
:1018D00024F400641BD0B1FA81F20B3AA41AA41EBE
:1018E000D2F12003914030FA03F31943904001EB09
:1018F000CC71002C01EB0451BDE81040A8BF70472B
:1019000001F1C0414FF0000001F000417047B0FA12
:1019100080F310FA03F100D110BDE41A173C48051A
:10192000C90AE4E701EB045110BD491001EB045171
:10193000BDE810404FEA300002E04FF00001704770
:101940004A0008BF0042F8D0B2F5001F28BF704718
:1019500001F000414FF0000070479EEA445F07D05D
:1019600011EA5E0FBDE8104004BF0021002070475F
:10197000BDE8104070B5FFF7BFFE00BF40DFF63E88
:1019800083F00041104670470000E0FF0CF00F03A9
:10199000092B08BF082000F059800A2B0BD0082B18
:1019A00018BF704708BF1CF0400F0AD04FF000006E
:1019B0004FF0000170471CF0400F18BF4FF000407F
:1019C00070471CF0100F08D020F0704300F07F42E9
:1019D00042EAD3014FEA4370704700F0604021F0C3
:1019E0007F4242EA000201F07F4040EA7270704795
:1019F0004FF0FF0C4CF4E06C1CEA11531CBF9CEA46
:101A0000030C9445C2BFDA4201EB02517047002B30
:101A10000DD0BCF1000F0FD0002A01F00041A4BF8F
:101A200041F0E04141F07F614FF00000704701F06C
:101A300000414FF00000704750EA01334FF09B0C1B
:101A400018BF4CF0806C7FF4C1AB70471CF4801F52
:101A500011D01CF4E02F03D06FEACC31490070475D
:101A60004FF04050EFF3008222F0704242EA000251
:101A700082F3008870474FF00000704700000000BC
:101A800004FA97999999D93FAF788E1DC571CC3FCB
:101A90009FC678D0099AC33F935555555555E53F94
:101AA000599322942449D23FDE03CB966446C73F24
:101AB00044523EDF12F1C23F00000000000000006F
:101AC000E01A000800000020180000005C01000877
:101AD000F81A0008180000208006000078010008AD
:101AE00000000000000000000102030401020304E2
:081AF0000607080902040608BC
:04000005080001C529
:00000001FF
